{
  "contractName": "smartAuction",
  "abi": [
    {
      "constant": true,
      "inputs": [],
      "name": "beneficiary",
      "outputs": [
        {
          "name": "",
          "type": "address"
        }
      ],
      "payable": false,
      "stateMutability": "view",
      "type": "function"
    },
    {
      "constant": true,
      "inputs": [],
      "name": "highestBidder",
      "outputs": [
        {
          "name": "",
          "type": "address"
        }
      ],
      "payable": false,
      "stateMutability": "view",
      "type": "function"
    },
    {
      "constant": true,
      "inputs": [],
      "name": "highestBid",
      "outputs": [
        {
          "name": "",
          "type": "uint256"
        }
      ],
      "payable": false,
      "stateMutability": "view",
      "type": "function"
    },
    {
      "inputs": [
        {
          "name": "_biddingTime",
          "type": "uint256"
        }
      ],
      "payable": false,
      "stateMutability": "nonpayable",
      "type": "constructor"
    },
    {
      "anonymous": false,
      "inputs": [
        {
          "indexed": false,
          "name": "bidder",
          "type": "address"
        },
        {
          "indexed": false,
          "name": "amount",
          "type": "uint256"
        }
      ],
      "name": "HighestbidIncreased",
      "type": "event"
    },
    {
      "anonymous": false,
      "inputs": [
        {
          "indexed": false,
          "name": "winner",
          "type": "address"
        },
        {
          "indexed": false,
          "name": "amount",
          "type": "uint256"
        }
      ],
      "name": "AuctionEnded",
      "type": "event"
    },
    {
      "constant": false,
      "inputs": [],
      "name": "bid",
      "outputs": [],
      "payable": true,
      "stateMutability": "payable",
      "type": "function"
    },
    {
      "constant": false,
      "inputs": [],
      "name": "withdraw",
      "outputs": [
        {
          "name": "",
          "type": "bool"
        }
      ],
      "payable": false,
      "stateMutability": "nonpayable",
      "type": "function"
    },
    {
      "constant": false,
      "inputs": [],
      "name": "auctionEnd",
      "outputs": [],
      "payable": false,
      "stateMutability": "nonpayable",
      "type": "function"
    },
    {
      "constant": true,
      "inputs": [],
      "name": "auctionAlreadyENded",
      "outputs": [
        {
          "name": "",
          "type": "bool"
        }
      ],
      "payable": false,
      "stateMutability": "view",
      "type": "function"
    }
  ],
  "bytecode": "0x608060405234801561001057600080fd5b5060405160208061086083398101806040528101908080519060200190929190505050336000806101000a81548173ffffffffffffffffffffffffffffffffffffffff021916908373ffffffffffffffffffffffffffffffffffffffff160217905550804201600181905550506107d48061008c6000396000f300608060405260043610610083576000357c0100000000000000000000000000000000000000000000000000000000900463ffffffff1680631998aeef146100885780632a24f46c1461009257806338af3eed146100a95780633ccfd60b1461010057806391f901571461012f578063a23ae83f14610186578063d57bde79146101b5575b600080fd5b6100906101e0565b005b34801561009e57600080fd5b506100a7610406565b005b3480156100b557600080fd5b506100be61061b565b604051808273ffffffffffffffffffffffffffffffffffffffff1673ffffffffffffffffffffffffffffffffffffffff16815260200191505060405180910390f35b34801561010c57600080fd5b50610115610640565b604051808215151515815260200191505060405180910390f35b34801561013b57600080fd5b50610144610765565b604051808273ffffffffffffffffffffffffffffffffffffffff1673ffffffffffffffffffffffffffffffffffffffff16815260200191505060405180910390f35b34801561019257600080fd5b5061019b61078b565b604051808215151515815260200191505060405180910390f35b3480156101c157600080fd5b506101ca6107a2565b6040518082815260200191505060405180910390f35b600154421115151561025a576040517f08c379a00000000000000000000000000000000000000000000000000000000081526004018080602001828103825260148152602001807f41756374696f6e20616c7265616479206f76657200000000000000000000000081525060200191505060405180910390fd5b600354341115156102d3576040517f08c379a000000000000000000000000000000000000000000000000000000000815260040180806020018281038252601d8152602001807f546865726520697320616c72656164792061206869676865722062696400000081525060200191505060405180910390fd5b60006003541415156103515760035460046000600260009054906101000a900473ffffffffffffffffffffffffffffffffffffffff1673ffffffffffffffffffffffffffffffffffffffff1673ffffffffffffffffffffffffffffffffffffffff168152602001908152602001600020600082825401925050819055505b3460038190555033600260006101000a81548173ffffffffffffffffffffffffffffffffffffffff021916908373ffffffffffffffffffffffffffffffffffffffff1602179055507f36fd3ed45fc84f169770c8855e332c34db9e0f097273e443001848de56ee39b93334604051808373ffffffffffffffffffffffffffffffffffffffff1673ffffffffffffffffffffffffffffffffffffffff1681526020018281526020019250505060405180910390a1565b6001544210151515610480576040517f08c379a00000000000000000000000000000000000000000000000000000000081526004018080602001828103825260158152602001807f41756374696f6e206e6f742079657420656e646564000000000000000000000081525060200191505060405180910390fd5b600560009054906101000a900460ff16151515610505576040517f08c379a00000000000000000000000000000000000000000000000000000000081526004018080602001828103825260158152602001807f61756374696f6e456e64207761732063616c6c6564000000000000000000000081525060200191505060405180910390fd5b6001600560006101000a81548160ff0219169083151502179055506000809054906101000a900473ffffffffffffffffffffffffffffffffffffffff1673ffffffffffffffffffffffffffffffffffffffff166108fc6003549081150290604051600060405180830381858888f19350505050158015610589573d6000803e3d6000fd5b507fdaec4582d5d9595688c8c98545fdd1c696d41c6aeaeb636737e84ed2f5c00eda600260009054906101000a900473ffffffffffffffffffffffffffffffffffffffff16600354604051808373ffffffffffffffffffffffffffffffffffffffff1673ffffffffffffffffffffffffffffffffffffffff1681526020018281526020019250505060405180910390a1565b6000809054906101000a900473ffffffffffffffffffffffffffffffffffffffff1681565b600080600460003373ffffffffffffffffffffffffffffffffffffffff1673ffffffffffffffffffffffffffffffffffffffff168152602001908152602001600020549050600081111561075c576000600460003373ffffffffffffffffffffffffffffffffffffffff1673ffffffffffffffffffffffffffffffffffffffff168152602001908152602001600020819055503373ffffffffffffffffffffffffffffffffffffffff166108fc829081150290604051600060405180830381858888f19350505050151561075b5780600460003373ffffffffffffffffffffffffffffffffffffffff1673ffffffffffffffffffffffffffffffffffffffff1681526020019081526020016000208190555060009150610761565b5b600191505b5090565b600260009054906101000a900473ffffffffffffffffffffffffffffffffffffffff1681565b6000600560009054906101000a900460ff16905090565b600354815600a165627a7a72305820d0d329cb254144f32ba47114192cc8a349ad844be4f3191637a5eff006ffc79c0029",
  "source": "// SPDX-License-Identifier: MIT\r\n\r\npragma solidity ^0.4.24;\r\n\r\n/**\r\n    @title Smart Contract Auction Contract\r\n    @dev Implementation of a simple auction on the Ethereum chain\r\n\r\n**/\r\n\r\ncontract smartAuction {\r\n    address public beneficiary;\r\n    uint public auctionEnd;\r\n\r\n    address public highestBidder;\r\n    uint public highestBid;\r\n\r\n    mapping(address => uint)pendingReturns;\r\n\r\n    bool ended;\r\n    event HighestbidIncreased(address bidder, uint amount);\r\n    event AuctionEnded(address winner, uint amount);\r\n\r\n    constructor(uint _biddingTime) public {\r\n        beneficiary = msg.sender;\r\n        auctionEnd = now + _biddingTime;\r\n    }\r\n\r\n    function bid() public payable {\r\n        require(now <= auctionEnd, \"Auction already over\");\r\n        require(msg.value > highestBid, \"There is already a higher bid\");\r\n\r\n        if( highestBid != 0) {\r\n            pendingReturns[highestBidder] += highestBid;\r\n        }\r\n\r\n        highestBid = msg.value;\r\n        highestBidder = msg.sender;\r\n\r\n        emit HighestbidIncreased(msg.sender, msg.value);\r\n    }\r\n\r\n    function withdraw() public returns(bool) {\r\n        uint amount = pendingReturns[msg.sender];\r\n        if(amount > 0) {\r\n            pendingReturns[msg.sender] = 0;\r\n\r\n            if(!msg.sender.send(amount)) {\r\n                pendingReturns[msg.sender] = amount;\r\n                return false;\r\n            }\r\n        }\r\n\r\n        return true;\r\n    \r\n    }\r\n\r\n\r\n    function auctionEnd() public {\r\n        require(now >= auctionEnd, \"Auction not yet ended\");\r\n        require(!ended, \"auctionEnd was called\");\r\n\r\n        ended = true;\r\n\r\n        beneficiary.transfer(highestBid);\r\n        emit AuctionEnded(highestBidder, highestBid);\r\n    }\r\n\r\n    function auctionAlreadyENded() public view returns(bool) {\r\n        return ended;\r\n    }\r\n\r\n}\r\n\r\n\r\n",
  "sourcePath": "C:\\Users\\USER\\Documents\\projects\\auctionContract\\contracts\\SmartAuction.sol",
  "compiler": {
    "name": "solc",
    "version": "0.4.24+commit.e67f0147.Emscripten.clang"
  },
  "schemaVersion": "3.4.3",
  "updatedAt": "2021-11-29T02:47:56.507Z",
  "devdoc": {
    "methods": {},
    "title": "Smart Contract Auction Contract\r"
  },
  "userdoc": {
    "methods": {}
  }
}